:020000040000FA
:0400000023EF00F0FA
:020004000000FA
:040008000EEF00F007
:080018000EEF00F0606FD8CF7D
:1000200060F0E0CF60F0F2A408D0BAD9D76EB8D9AA
:100030008B16B6D98A16D66AF29460C0E0FF60517A
:1000400060C0D8FF100000EE00F0EE6AEAA0FDD715
:10005000EAB201D0EA82F9D78F0E8F6F8F6F9F0EB1
:100060009F6F9F6FAF0EAF6FAF6F770E776F776F2A
:10007000060E636F630E18EC02F060696081D66A49
:10008000D76A880ED56EF28CF28AC290000E7E6E10
:10009000000E7F6E946A0F0E9316F28E100E8F6113
:1000A0001FD077C077F077C077F077C077F077C050
:1000B00077F08FC077F08FC077F08FC0E9FF8F0E99
:1000C000776FC5D877C077F077C077F077C077F0D3
:1000D00077C077F077C08FF077C08FF0E9CF8FF0DF
:1000E000100E9F611FD077C077F077C077F077C090
:1000F00077F077C077F09FC077F09FC077F09FC010
:10010000E9FF9F0E776FA3D877C077F077C077F0BD
:1001100077C077F077C077F077C09FF077C09FF017
:10012000E9CF9FF0100EAF611FD077C077F077C096
:1001300077F077C077F077C077F0AFC077F0AFC0D7
:1001400077F0AFC0E9FFAF0E776F81D877C077F057
:1001500077C077F077C077F077C077F077C0AFF0EF
:1001600077C0AFF0E9CFAFF060A110D02BD9606FAE
:10017000606F606F606F38D9606F606F606F606FC5
:1001800045D9606F606F606F606F609160B1ECD750
:10019000160E776183D777C077F077C0E9FF770EC7
:1001A000776F05D877C077F0E9CF77F0EFD7605158
:1001B0006065605160656051606560516065605167
:1001C0006065605160656051606560516065605157
:1001D0006065605160656051606560516065605147
:1001E000605F21E0E82A605F6037605F6037605FD2
:1001F0006037605F6037605F6037605F6037605FA7
:100200006037605F60376169605F6137605F613789
:10021000605F6137605F6137E806B4D86051B2D87B
:100220006151B0D8010CAED86007606B6051AAD89C
:10023000F00E616F6151A6D86081FF0C00EE77F07F
:1002400004D963C0EEFF770EE964FAD7120064D8D0
:10025000E83E0ED077C077F077C077F077C077F0C0
:10026000F4D863C077F077517FD8E83EF0D712001A
:1002700077517003F4CF65F0F3CF64F06F03F3CFE1
:1002800063F0F450642701E3652B77517203F4CFD8
:1002900068F0F3CF67F07103F3CF66F0F45067278F
:1002A00001E3682B77517403F4CF6BF0F3CF6AF05E
:1002B0007303F3CF69F0F4506A2701E36B2B775196
:1002C0007603F4CF6EF0F3CF6DF07503F3CF6CF0DF
:1002D000F4506D2701E36E2B695166276A5167233D
:1002E0006B5168236351665F6451675B6551685B5E
:1002F00003E2E8686827682B6C51665F6D51675BA5
:100300006E51685B03E2E8686827682B800E6727F8
:10031000D8B068296851A8D7776703D0080E772727
:10032000FF0C77C0F6FFF86A080EF76E0900F5506B
:100330006F6F0900F550706F0900F550716F09007B
:10034000F550726F0900F550736F0900F550746F26
:100350000900F550756F0900F550766FF6CF77F00C
:10036000800E7760776B010C776F100E776109D084
:10037000EA6A77C0EEFF772B100EE95C7765E96ECD
:10038000010CFF0C776F180E776109D0EA6A77C00D
:10039000EEFF772B180EE95C7765E96E010CFF0C18
:1003A000775101E10ED0EA6A77C0E9FFEFCF77F02D
:1003B000772B77078E0E776502D0770E776F7751A0
:1003C0001200FF0C8F5101E10ED0EA6A8FC0E9FFE5
:1003D000EFCF77F08F2B8F079E0E8F6502D08F0E99
:1003E0008F6F77511200FF0C9F5101E10ED0EA6A26
:1003F0009FC0E9FFEFCF77F09F2B9F07AE0E9F6561
:1004000002D09F0E9F6F77511200FF0CAF5101E198
:100410000ED0EA6AAFC0E9FFEFCF77F0AF2BAF079E
:10042000BE0EAF6502D0AF0EAF6F77511200FF0C5A
:10043000E96EEA6AA69EA69C6351A96EA680A8CF23
:10044000EEFF632B632FF8D712000ED80DD80CD80F
:100450000BD80AD809D808D807D8100E6365636F7F
:10046000EF0E6361636F1200D890633363336333BD
:1004700063336333633304E3890E631B400E631BF2
:02048000120068
:100800000000000000000000080798FDE8097800DB
:10081000400CC0F64017C001D80F08EC7827A80399
:10082000001200DE003A0006E81238CD484E980863
:10083000C01240BAC063400BB811A8A5D879C80D42
:100840000010009000900010C80DD879A8A5B8112C
:10085000400BC06340BAC0129808484E38CDE81229
:100860000006003A00DE0012A803782708ECD80F33
:10087000C0014017C0F6400C7800E80998FD080751
:100880000000000000000000400CC0F64017C0014E
:10089000001200DE003A0006C01240BAC063400BEE
:1008A0000010009000900010400BC06340BAC012CE
:1008B0000006003A00DE0012C0014017C0F6400CEE
:1008C000000000000CF7170212DE3A0613BA640BA0
:1008D000109090100B64BA13063ADE120217F70C50
:020000040030CA
:0100000000FF
:0100010038C6
:0100020021DC
:0100030000FC
:0100050000FA
:010006008079
:0100080003F4
:01000900C036
:01000A0003F2
:01000B00E014
:01000C0003F0
:01000D0040B2
:0200000400F00A
:06000000CBECA3A9D9DA44
:00000001FF
