:020000040000FA
:0400000023EF00F0FA
:040008000EEF00F007
:080018000EEF00F0086ED8CFD6
:1000200009F0E0CF0AF0F2A408D0B6D9D76EB4D95F
:100030008B16B2D98A16D66AF2940AC0E0FF08502D
:1000400009C0D8FF100000EE00F0EE6AEAA2FDD76A
:100050006B0E696F6A6F7F0E7D6F7E6F930E916F6F
:10006000926F4F0E4D6E4E6E060E226E1B0E14ECEE
:1000700002F018680B80D66AD76A880ED56EF28CAB
:10008000F28AC290000E7E6E000E7F6E946A0F0E92
:100090009316F28E100E68611FD03BC037F03CC043
:1000A00038F03DC039F03EC03AF067C048F068C053
:1000B00049F069C0E9FF6B0E4B6EC5D837C03BF005
:1000C00038C03CF039C03DF03AC03EF048C067F05F
:1000D00049C068F0E9CF69F0100E7C611FD03FC0C5
:1000E00037F040C038F041C039F042C03AF07BC030
:1000F00048F07CC049F07DC0E9FF7F0E4B6EA3D86D
:1001000037C03FF038C040F039C041F03AC042F04B
:1001100048C07BF049C07CF0E9CF7DF0100E9061C3
:100120001FD043C037F044C038F045C039F046C056
:100130003AF08FC048F090C049F091C0E9FF930EAB
:100140004B6E81D837C043F038C044F039C045F019
:100150003AC046F048C08FF049C090F0E9CF91F026
:100160000BA010D02BD90C6E0F6E126E156E38D9F5
:100170000D6E106E136E166E45D90E6E116E146EE6
:10018000176E0B900BB0ECD7160E4C6083D74CC09B
:1001900049F04DC0E9FF4F0E4B6E05D849C04CF0F9
:1001A000E9CF4DF0EFD70C500D640D500E640E509A
:1001B0000F640F50106410501164115012641250EB
:1001C00013641350146414501564155016641650BB
:1001D0001764175018641850185E21E0E82A135E5F
:1001E0001936125E1936155E1936165E1936175E07
:1001F00019360E5E19360D5E19360C5E19361A6800
:10020000145E1A36115E1A36105E1A360F5E1A36F2
:10021000E806B4D81950B2D81A50B0D8010CAED8EC
:100220001806196A1950AAD8F00E1A6E1A50A6D8D4
:100230000B80FF0C00EE3BF004D920C0EEFF460E11
:10024000E964FAD7120064D8E83E0ED038C037F01F
:1002500039C038F03AC039F0F4D820C03AF03850FC
:100260007FD8E83EF0D7120037503002F4CF25F0A7
:10027000F3CF24F02F02F3CF23F0F450242601E330
:10028000252A38503202F4CF28F0F3CF27F031027C
:10029000F3CF26F0F450272601E3282A3950340200
:1002A000F4CF2BF0F3CF2AF03302F3CF29F0F45040
:1002B0002A2601E32B2A3A503602F4CF2EF0F3CF50
:1002C0002DF03502F3CF2CF0F4502D2601E32E2A29
:1002D000295026262A5027222B5028222350265EDA
:1002E0002450275A2550285A03E2E8682826282A4D
:1002F0002C50265E2D50275A2E50285A03E2E868CB
:100300002826282A800E2726D8B028282850A8D7A3
:10031000486603D0080E4826FF0C48C0F6FFF86A6E
:10032000080EF76E0900F5502F6E0900F550306E7B
:100330000900F550316E0900F550326E0900F55094
:10034000336E0900F550346E0900F550356E090022
:10035000F550366EF6CF48F0800E4860486A010CC2
:10036000476E100E496009D0EA6A47C0EEFF492A7D
:10037000100EE95C4B64E96E010CFF0C476E180E21
:10038000496009D0EA6A47C0EEFF492A180EE95CC5
:100390004B64E96E010CFF0C4C5001E10ED0EA6A8F
:1003A0004EC0E9FFEFCF47F04E2A4C06660E4E6472
:1003B00002D04F0E4E6E47501200FF0C685101E103
:1003C0000ED0EA6A6AC0E9FFEFCF47F06A2B6807F0
:1003D0007A0E6A6502D06B0E6A6F47501200FF0CEE
:1003E0007C5101E10ED0EA6A7EC0E9FFEFCF47F011
:1003F0007E2B7C078E0E7E6502D07F0E7E6F47506F
:100400001200FF0C905101E10ED0EA6A92C0E9FFA0
:10041000EFCF47F0922B9007A20E926502D0930E79
:10042000926F47501200FF0CE96EEA6AA69EA69CE6
:100430002150A96EA680A8CFEEFF212A222EF8D740
:1004400012000ED80DD80CD80BD80AD809D808D865
:1004500007D8100E2064206EEF0E2060206E120070
:10046000D8901B321C321D321E321F32203204E360
:0A047000890E1B1A400E1C1A120020
:100800000000000000000000080798FDE8097800DB
:10081000400CC0F64017C001D80F08EC7827A80399
:10082000001200DE003A0006E81238CD484E980863
:10083000C01240BAC063400BB811A8A5D879C80D42
:100840000010009000900010C80DD879A8A5B8112C
:10085000400BC06340BAC0129808484E38CDE81229
:100860000006003A00DE0012A803782708ECD80F33
:10087000C0014017C0F6400C7800E80998FD080751
:100880000000000000000000400CC0F64017C0014E
:10089000001200DE003A0006C01240BAC063400BEE
:1008A0000010009000900010400BC06340BAC012CE
:1008B0000006003A00DE0012C0014017C0F6400CEE
:1008C000000000000CF7170212DE3A0613BA640BA0
:1008D000109090100B64BA13063ADE120217F70C50
:020000040030CA
:0400000000382100A3
:02000500008079
:0600080003C003E0034009
:0200000400F00A
:06000000CBECA3A9D9DA44
:00000001FF
