:020000040000FA
:0400000023EF00F0FA
:020004000000FA
:040008000EEF00F007
:080018000EEF00F0606FD8CF7D
:1000200061F0E0CF62F0F2A408D0B6D9D76EB4D9AF
:100030008B16B2D98A16D66AF29462C0E0FF60517C
:1000400061C0D8FF100000EE00F0EE6AEAA2FDD712
:10005000C30EC16FC26FD70ED56FD66FEB0EE96FAF
:10006000EA6FA70EA56FA66F060E7A6F730E14ECDB
:1000700002F070696381D66AD76A880ED56EF28CF9
:10008000F28AC290000E7E6E000E7F6E946A0F0E92
:100090009316F28E100EC0611FD093C08FF094C0E3
:1000A00090F095C091F096C092F0BFC0A0F0C0C093
:1000B000A1F0C1C0E9FFC30EA36FC5D88FC093F0F4
:1000C00090C094F091C095F092C096F0A0C0BFF09F
:1000D000A1C0C0F0E9CFC1F0100ED4611FD097C00D
:1000E0008FF098C090F099C091F09AC092F0D3C070
:1000F000A0F0D4C0A1F0D5C0E9FFD70EA36FA3D85C
:100100008FC097F090C098F091C099F092C09AF08B
:10011000A0C0D3F0A1C0D4F0E9CFD5F0100EE861B3
:100120001FD09BC08FF09CC090F09DC091F09EC0EE
:1001300092F0E7C0A0F0E8C0A1F0E9C0E9FFEB0E43
:10014000A36F81D88FC09BF090C09CF091C09DF0B0
:1001500092C09EF0A0C0E7F0A1C0E8F0E9CFE9F0BE
:1001600063A110D02BD9646F676F6A6F6D6F38D938
:10017000656F686F6B6F6E6F45D9666F696F6C6F77
:100180006F6F639163B1ECD7160EA46183D7A4C0DF
:10019000A1F0A5C0E9FFA70EA36F05D8A1C0A4F0E8
:1001A000E9CFA5F0EFD76451656565516665665185
:1001B0006765675168656851696569516A656A5123
:1001C0006B656B516C656C516D656D516E656E51F3
:1001D0006F656F5170657051705F21E0E82A6B5F49
:1001E00071376A5F71376D5F71376E5F71376F5F3F
:1001F0007137665F7137655F7137645F7137726938
:100200006C5F7237695F7237685F7237675F72372A
:10021000E806B4D87151B2D87251B0D8010CAED83A
:100220007007716B7151AAD8F00E726F7251A6D817
:100230006381FF0C00EE93F004D978C0EEFF9E0EB0
:10024000E964FAD7120064D8E83E0ED090C08FF06F
:1002500091C090F092C091F0F4D878C092F0905193
:100260007FD8E83EF0D712008F518803F4CF7DF09D
:10027000F3CF7CF08703F3CF7BF0F4507C2701E3CE
:100280007D2B90518A03F4CF80F0F3CF7FF0890368
:10029000F3CF7EF0F4507F2701E3802B91518C0344
:1002A000F4CF83F0F3CF82F08B03F3CF81F0F450DF
:1002B000822701E3832B92518E03F4CF86F0F3CF94
:1002C00085F08D03F3CF84F0F450852701E3862B6E
:1002D00081517E2782517F23835180237B517E5F12
:1002E0007C517F5B7D51805B03E2E8688027802B37
:1002F00084517E5F85517F5B8651805B03E2E868B5
:100300008027802B800E7F27D8B080298051A8D7E6
:10031000A06703D0080EA027FF0CA0C0F6FFF86A64
:10032000080EF76E0900F550876F0900F550886FC9
:100330000900F550896F0900F5508A6F0900F550E2
:100340008B6F0900F5508C6F0900F5508D6F090017
:10035000F5508E6FF6CFA0F0800EA060A06B010C60
:100360009F6F100EA16109D0EA6A9FC0EEFFA12B1A
:10037000100EE95CA365E96E010CFF0C9F6F180E6F
:10038000A16109D0EA6A9FC0EEFFA12B180EE95CBB
:10039000A365E96E010CFF0CA45101E10ED0EA6ADD
:1003A000A6C0E9FFEFCF9FF0A62BA407BE0EA6655F
:1003B00002D0A70EA66F9F511200FF0CC05101E1A1
:1003C0000ED0EA6AC2C0E9FFEFCF9FF0C22BC00790
:1003D000D20EC26502D0C30EC26F9F511200FF0C35
:1003E000D45101E10ED0EA6AD6C0E9FFEFCF9FF009
:1003F000D62BD407E60ED66502D0D70ED66F9F5106
:100400001200FF0CE85101E10ED0EA6AEAC0E9FFF0
:10041000EFCF9FF0EA2BE807FA0EEA6502D0EB0E69
:10042000EA6F9F511200FF0CE96EEA6AA69EA69C35
:100430007951A96EA680A8CFEEFF792B7A2FF8D735
:1004400012000ED80DD80CD80BD80AD809D808D865
:1004500007D8100E7865786FEF0E7861786F12000C
:10046000D89073337433753376337733783304E34A
:0A047000890E731B400E741B12006E
:100800000000000000000000080798FDE8097800DB
:10081000400CC0F64017C001D80F08EC7827A80399
:10082000001200DE003A0006E81238CD484E980863
:10083000C01240BAC063400BB811A8A5D879C80D42
:100840000010009000900010C80DD879A8A5B8112C
:10085000400BC06340BAC0129808484E38CDE81229
:100860000006003A00DE0012A803782708ECD80F33
:10087000C0014017C0F6400C7800E80998FD080751
:100880000000000000000000400CC0F64017C0014E
:10089000001200DE003A0006C01240BAC063400BEE
:1008A0000010009000900010400BC06340BAC012CE
:1008B0000006003A00DE0012C0014017C0F6400CEE
:1008C000000000000CF7170212DE3A0613BA640BA0
:1008D000109090100B64BA13063ADE120217F70C50
:020000040030CA
:0100000000FF
:0100010038C6
:0100020021DC
:0100030000FC
:0100050000FA
:010006008079
:0100080003F4
:01000900C036
:01000A0003F2
:01000B00E014
:01000C0003F0
:01000D0040B2
:0200000400F00A
:06000000CBECA3A9D9DA44
:00000001FF
